{
  "_format": "hh-sol-artifact-1",
  "contractName": "SimpleToken",
  "sourceName": "contracts/SimpleToken.sol",
  "abi": [
    {
      "inputs": [
        {
          "internalType": "string",
          "name": "name",
          "type": "string"
        },
        {
          "internalType": "string",
          "name": "symbol",
          "type": "string"
        },
        {
          "internalType": "uint8",
          "name": "decimals",
          "type": "uint8"
        },
        {
          "internalType": "uint256",
          "name": "initial_supply",
          "type": "uint256"
        }
      ],
      "stateMutability": "nonpayable",
      "type": "constructor"
    },
    {
      "anonymous": false,
      "inputs": [
        {
          "indexed": true,
          "internalType": "address",
          "name": "owner",
          "type": "address"
        },
        {
          "indexed": true,
          "internalType": "address",
          "name": "spender",
          "type": "address"
        },
        {
          "indexed": false,
          "internalType": "uint256",
          "name": "value",
          "type": "uint256"
        }
      ],
      "name": "Approval",
      "type": "event"
    },
    {
      "anonymous": false,
      "inputs": [
        {
          "indexed": false,
          "internalType": "address",
          "name": "account",
          "type": "address"
        }
      ],
      "name": "Paused",
      "type": "event"
    },
    {
      "anonymous": false,
      "inputs": [
        {
          "indexed": true,
          "internalType": "bytes32",
          "name": "role",
          "type": "bytes32"
        },
        {
          "indexed": true,
          "internalType": "bytes32",
          "name": "previousAdminRole",
          "type": "bytes32"
        },
        {
          "indexed": true,
          "internalType": "bytes32",
          "name": "newAdminRole",
          "type": "bytes32"
        }
      ],
      "name": "RoleAdminChanged",
      "type": "event"
    },
    {
      "anonymous": false,
      "inputs": [
        {
          "indexed": true,
          "internalType": "bytes32",
          "name": "role",
          "type": "bytes32"
        },
        {
          "indexed": true,
          "internalType": "address",
          "name": "account",
          "type": "address"
        },
        {
          "indexed": true,
          "internalType": "address",
          "name": "sender",
          "type": "address"
        }
      ],
      "name": "RoleGranted",
      "type": "event"
    },
    {
      "anonymous": false,
      "inputs": [
        {
          "indexed": true,
          "internalType": "bytes32",
          "name": "role",
          "type": "bytes32"
        },
        {
          "indexed": true,
          "internalType": "address",
          "name": "account",
          "type": "address"
        },
        {
          "indexed": true,
          "internalType": "address",
          "name": "sender",
          "type": "address"
        }
      ],
      "name": "RoleRevoked",
      "type": "event"
    },
    {
      "anonymous": false,
      "inputs": [
        {
          "indexed": true,
          "internalType": "address",
          "name": "from",
          "type": "address"
        },
        {
          "indexed": true,
          "internalType": "address",
          "name": "to",
          "type": "address"
        },
        {
          "indexed": false,
          "internalType": "uint256",
          "name": "value",
          "type": "uint256"
        }
      ],
      "name": "Transfer",
      "type": "event"
    },
    {
      "anonymous": false,
      "inputs": [
        {
          "indexed": false,
          "internalType": "address",
          "name": "account",
          "type": "address"
        }
      ],
      "name": "Unpaused",
      "type": "event"
    },
    {
      "inputs": [],
      "name": "DEFAULT_ADMIN_ROLE",
      "outputs": [
        {
          "internalType": "bytes32",
          "name": "",
          "type": "bytes32"
        }
      ],
      "stateMutability": "view",
      "type": "function"
    },
    {
      "inputs": [],
      "name": "INITIAL_SUPPLY",
      "outputs": [
        {
          "internalType": "uint256",
          "name": "",
          "type": "uint256"
        }
      ],
      "stateMutability": "view",
      "type": "function"
    },
    {
      "inputs": [],
      "name": "MINTER_ROLE",
      "outputs": [
        {
          "internalType": "bytes32",
          "name": "",
          "type": "bytes32"
        }
      ],
      "stateMutability": "view",
      "type": "function"
    },
    {
      "inputs": [],
      "name": "PAUSER_ROLE",
      "outputs": [
        {
          "internalType": "bytes32",
          "name": "",
          "type": "bytes32"
        }
      ],
      "stateMutability": "view",
      "type": "function"
    },
    {
      "inputs": [
        {
          "internalType": "address",
          "name": "owner",
          "type": "address"
        },
        {
          "internalType": "address",
          "name": "spender",
          "type": "address"
        }
      ],
      "name": "allowance",
      "outputs": [
        {
          "internalType": "uint256",
          "name": "",
          "type": "uint256"
        }
      ],
      "stateMutability": "view",
      "type": "function"
    },
    {
      "inputs": [
        {
          "internalType": "address",
          "name": "spender",
          "type": "address"
        },
        {
          "internalType": "uint256",
          "name": "amount",
          "type": "uint256"
        }
      ],
      "name": "approve",
      "outputs": [
        {
          "internalType": "bool",
          "name": "",
          "type": "bool"
        }
      ],
      "stateMutability": "nonpayable",
      "type": "function"
    },
    {
      "inputs": [
        {
          "internalType": "address",
          "name": "account",
          "type": "address"
        }
      ],
      "name": "balanceOf",
      "outputs": [
        {
          "internalType": "uint256",
          "name": "",
          "type": "uint256"
        }
      ],
      "stateMutability": "view",
      "type": "function"
    },
    {
      "inputs": [
        {
          "internalType": "uint256",
          "name": "amount",
          "type": "uint256"
        }
      ],
      "name": "burn",
      "outputs": [],
      "stateMutability": "nonpayable",
      "type": "function"
    },
    {
      "inputs": [
        {
          "internalType": "address",
          "name": "account",
          "type": "address"
        },
        {
          "internalType": "uint256",
          "name": "amount",
          "type": "uint256"
        }
      ],
      "name": "burnFrom",
      "outputs": [],
      "stateMutability": "nonpayable",
      "type": "function"
    },
    {
      "inputs": [],
      "name": "decimals",
      "outputs": [
        {
          "internalType": "uint8",
          "name": "",
          "type": "uint8"
        }
      ],
      "stateMutability": "view",
      "type": "function"
    },
    {
      "inputs": [
        {
          "internalType": "address",
          "name": "spender",
          "type": "address"
        },
        {
          "internalType": "uint256",
          "name": "subtractedValue",
          "type": "uint256"
        }
      ],
      "name": "decreaseAllowance",
      "outputs": [
        {
          "internalType": "bool",
          "name": "",
          "type": "bool"
        }
      ],
      "stateMutability": "nonpayable",
      "type": "function"
    },
    {
      "inputs": [
        {
          "internalType": "bytes32",
          "name": "role",
          "type": "bytes32"
        }
      ],
      "name": "getRoleAdmin",
      "outputs": [
        {
          "internalType": "bytes32",
          "name": "",
          "type": "bytes32"
        }
      ],
      "stateMutability": "view",
      "type": "function"
    },
    {
      "inputs": [
        {
          "internalType": "bytes32",
          "name": "role",
          "type": "bytes32"
        },
        {
          "internalType": "uint256",
          "name": "index",
          "type": "uint256"
        }
      ],
      "name": "getRoleMember",
      "outputs": [
        {
          "internalType": "address",
          "name": "",
          "type": "address"
        }
      ],
      "stateMutability": "view",
      "type": "function"
    },
    {
      "inputs": [
        {
          "internalType": "bytes32",
          "name": "role",
          "type": "bytes32"
        }
      ],
      "name": "getRoleMemberCount",
      "outputs": [
        {
          "internalType": "uint256",
          "name": "",
          "type": "uint256"
        }
      ],
      "stateMutability": "view",
      "type": "function"
    },
    {
      "inputs": [
        {
          "internalType": "bytes32",
          "name": "role",
          "type": "bytes32"
        },
        {
          "internalType": "address",
          "name": "account",
          "type": "address"
        }
      ],
      "name": "grantRole",
      "outputs": [],
      "stateMutability": "nonpayable",
      "type": "function"
    },
    {
      "inputs": [
        {
          "internalType": "bytes32",
          "name": "role",
          "type": "bytes32"
        },
        {
          "internalType": "address",
          "name": "account",
          "type": "address"
        }
      ],
      "name": "hasRole",
      "outputs": [
        {
          "internalType": "bool",
          "name": "",
          "type": "bool"
        }
      ],
      "stateMutability": "view",
      "type": "function"
    },
    {
      "inputs": [
        {
          "internalType": "address",
          "name": "spender",
          "type": "address"
        },
        {
          "internalType": "uint256",
          "name": "addedValue",
          "type": "uint256"
        }
      ],
      "name": "increaseAllowance",
      "outputs": [
        {
          "internalType": "bool",
          "name": "",
          "type": "bool"
        }
      ],
      "stateMutability": "nonpayable",
      "type": "function"
    },
    {
      "inputs": [
        {
          "internalType": "address",
          "name": "to",
          "type": "address"
        },
        {
          "internalType": "uint256",
          "name": "amount",
          "type": "uint256"
        }
      ],
      "name": "mint",
      "outputs": [],
      "stateMutability": "nonpayable",
      "type": "function"
    },
    {
      "inputs": [],
      "name": "name",
      "outputs": [
        {
          "internalType": "string",
          "name": "",
          "type": "string"
        }
      ],
      "stateMutability": "view",
      "type": "function"
    },
    {
      "inputs": [],
      "name": "pause",
      "outputs": [],
      "stateMutability": "nonpayable",
      "type": "function"
    },
    {
      "inputs": [],
      "name": "paused",
      "outputs": [
        {
          "internalType": "bool",
          "name": "",
          "type": "bool"
        }
      ],
      "stateMutability": "view",
      "type": "function"
    },
    {
      "inputs": [
        {
          "internalType": "bytes32",
          "name": "role",
          "type": "bytes32"
        },
        {
          "internalType": "address",
          "name": "account",
          "type": "address"
        }
      ],
      "name": "renounceRole",
      "outputs": [],
      "stateMutability": "nonpayable",
      "type": "function"
    },
    {
      "inputs": [
        {
          "internalType": "bytes32",
          "name": "role",
          "type": "bytes32"
        },
        {
          "internalType": "address",
          "name": "account",
          "type": "address"
        }
      ],
      "name": "revokeRole",
      "outputs": [],
      "stateMutability": "nonpayable",
      "type": "function"
    },
    {
      "inputs": [
        {
          "internalType": "bytes4",
          "name": "interfaceId",
          "type": "bytes4"
        }
      ],
      "name": "supportsInterface",
      "outputs": [
        {
          "internalType": "bool",
          "name": "",
          "type": "bool"
        }
      ],
      "stateMutability": "view",
      "type": "function"
    },
    {
      "inputs": [],
      "name": "symbol",
      "outputs": [
        {
          "internalType": "string",
          "name": "",
          "type": "string"
        }
      ],
      "stateMutability": "view",
      "type": "function"
    },
    {
      "inputs": [],
      "name": "totalSupply",
      "outputs": [
        {
          "internalType": "uint256",
          "name": "",
          "type": "uint256"
        }
      ],
      "stateMutability": "view",
      "type": "function"
    },
    {
      "inputs": [
        {
          "internalType": "address",
          "name": "recipient",
          "type": "address"
        },
        {
          "internalType": "uint256",
          "name": "amount",
          "type": "uint256"
        }
      ],
      "name": "transfer",
      "outputs": [
        {
          "internalType": "bool",
          "name": "",
          "type": "bool"
        }
      ],
      "stateMutability": "nonpayable",
      "type": "function"
    },
    {
      "inputs": [
        {
          "internalType": "address",
          "name": "sender",
          "type": "address"
        },
        {
          "internalType": "address",
          "name": "recipient",
          "type": "address"
        },
        {
          "internalType": "uint256",
          "name": "amount",
          "type": "uint256"
        }
      ],
      "name": "transferFrom",
      "outputs": [
        {
          "internalType": "bool",
          "name": "",
          "type": "bool"
        }
      ],
      "stateMutability": "nonpayable",
      "type": "function"
    },
    {
      "inputs": [],
      "name": "unpause",
      "outputs": [],
      "stateMutability": "nonpayable",
      "type": "function"
    }
  ],
  "bytecode": "0x60806040526012600a62000014919062000a91565b61271062000023919062000bce565b6008553480156200003357600080fd5b50604051620040c5380380620040c58339818101604052810190620000599190620007a7565b8383818181600590805190602001906200007592919062000657565b5080600690805190602001906200008e92919062000657565b5050506000600760006101000a81548160ff021916908315150217905550620000d06000801b620000c4620001b260201b60201c565b620001ba60201b60201c565b620001117f9f2df0fed2c77648de5860a4cc508cd0818c85b8b8a1ab4ceeef8d981c8956a662000105620001b260201b60201c565b620001ba60201b60201c565b620001527f65d7a28e3265b37a6474929f336521b332c1681b933f6cb9f3376673440d862a62000146620001b260201b60201c565b620001ba60201b60201c565b505081600760016101000a81548160ff021916908360ff1602179055508160ff16600a62000181919062000a91565b816200018e919062000bce565b600881905550620001a8336008546200020260201b60201c565b5050505062000d80565b600033905090565b620001d182826200036860201b62000f1d1760201c565b620001fd81600160008581526020019081526020016000206200037e60201b62000f2b1790919060201c565b505050565b600073ffffffffffffffffffffffffffffffffffffffff168273ffffffffffffffffffffffffffffffffffffffff16141562000275576040517f08c379a00000000000000000000000000000000000000000000000000000000081526004016200026c9062000900565b60405180910390fd5b6200028960008383620003b660201b60201c565b80600460008282546200029d9190620009d9565b9250508190555080600260008473ffffffffffffffffffffffffffffffffffffffff1673ffffffffffffffffffffffffffffffffffffffff1681526020019081526020016000206000828254620002f59190620009d9565b925050819055508173ffffffffffffffffffffffffffffffffffffffff16600073ffffffffffffffffffffffffffffffffffffffff167fddf252ad1be2c89b69c2b068fc378daa952ba7f163c4a11628f55a4df523b3ef836040516200035c919062000944565b60405180910390a35050565b6200037a8282620003d360201b60201c565b5050565b6000620003ae836000018373ffffffffffffffffffffffffffffffffffffffff1660001b620004c460201b60201c565b905092915050565b620003ce8383836200053e60201b62000f5b1760201c565b505050565b620003e58282620005ae60201b60201c565b620004c057600160008084815260200190815260200160002060000160008373ffffffffffffffffffffffffffffffffffffffff1673ffffffffffffffffffffffffffffffffffffffff16815260200190815260200160002060006101000a81548160ff02191690831515021790555062000465620001b260201b60201c565b73ffffffffffffffffffffffffffffffffffffffff168173ffffffffffffffffffffffffffffffffffffffff16837f2f8788117e7eff1d82e926ec794901d17c78024a50270940304540a733656f0d60405160405180910390a45b5050565b6000620004d883836200061860201b60201c565b6200053357826000018290806001815401808255809150506001900390600052602060002001600090919091909150558260000180549050836001016000848152602001908152602001600020819055506001905062000538565b600090505b92915050565b620005568383836200063b60201b62000fb31760201c565b620005666200064060201b60201c565b15620005a9576040517f08c379a0000000000000000000000000000000000000000000000000000000008152600401620005a09062000922565b60405180910390fd5b505050565b600080600084815260200190815260200160002060000160008373ffffffffffffffffffffffffffffffffffffffff1673ffffffffffffffffffffffffffffffffffffffff16815260200190815260200160002060009054906101000a900460ff16905092915050565b600080836001016000848152602001908152602001600020541415905092915050565b505050565b6000600760009054906101000a900460ff16905090565b828054620006659062000c7c565b90600052602060002090601f016020900481019282620006895760008555620006d5565b82601f10620006a457805160ff1916838001178555620006d5565b82800160010185558215620006d5579182015b82811115620006d4578251825591602001919060010190620006b7565b5b509050620006e49190620006e8565b5090565b5b8082111562000703576000816000905550600101620006e9565b5090565b60006200071e620007188462000995565b62000961565b9050828152602081018484840111156200073757600080fd5b6200074484828562000c46565b509392505050565b600082601f8301126200075e57600080fd5b81516200077084826020860162000707565b91505092915050565b6000815190506200078a8162000d4c565b92915050565b600081519050620007a18162000d66565b92915050565b60008060008060808587031215620007be57600080fd5b600085015167ffffffffffffffff811115620007d957600080fd5b620007e7878288016200074c565b945050602085015167ffffffffffffffff8111156200080557600080fd5b62000813878288016200074c565b9350506040620008268782880162000790565b9250506060620008398782880162000779565b91505092959194509250565b600062000854601f83620009c8565b91507f45524332303a206d696e7420746f20746865207a65726f2061646472657373006000830152602082019050919050565b600062000896602a83620009c8565b91507f45524332305061757361626c653a20746f6b656e207472616e7366657220776860008301527f696c6520706175736564000000000000000000000000000000000000000000006020830152604082019050919050565b620008fa8162000c2f565b82525050565b600060208201905081810360008301526200091b8162000845565b9050919050565b600060208201905081810360008301526200093d8162000887565b9050919050565b60006020820190506200095b6000830184620008ef565b92915050565b6000604051905081810181811067ffffffffffffffff821117156200098b576200098a62000d10565b5b8060405250919050565b600067ffffffffffffffff821115620009b357620009b262000d10565b5b601f19601f8301169050602081019050919050565b600082825260208201905092915050565b6000620009e68262000c2f565b9150620009f38362000c2f565b9250827fffffffffffffffffffffffffffffffffffffffffffffffffffffffffffffffff0382111562000a2b5762000a2a62000cb2565b5b828201905092915050565b6000808291508390505b600185111562000a885780860481111562000a605762000a5f62000cb2565b5b600185161562000a705780820291505b808102905062000a808562000d3f565b945062000a40565b94509492505050565b600062000a9e8262000c2f565b915062000aab8362000c2f565b925062000ada7fffffffffffffffffffffffffffffffffffffffffffffffffffffffffffffffff848462000ae2565b905092915050565b60008262000af4576001905062000bc7565b8162000b04576000905062000bc7565b816001811462000b1d576002811462000b285762000b5e565b600191505062000bc7565b60ff84111562000b3d5762000b3c62000cb2565b5b8360020a91508482111562000b575762000b5662000cb2565b5b5062000bc7565b5060208310610133831016604e8410600b841016171562000b985782820a90508381111562000b925762000b9162000cb2565b5b62000bc7565b62000ba7848484600162000a36565b9250905081840481111562000bc15762000bc062000cb2565b5b81810290505b9392505050565b600062000bdb8262000c2f565b915062000be88362000c2f565b9250817fffffffffffffffffffffffffffffffffffffffffffffffffffffffffffffffff048311821515161562000c245762000c2362000cb2565b5b828202905092915050565b6000819050919050565b600060ff82169050919050565b60005b8381101562000c6657808201518184015260208101905062000c49565b8381111562000c76576000848401525b50505050565b6000600282049050600182168062000c9557607f821691505b6020821081141562000cac5762000cab62000ce1565b5b50919050565b7f4e487b7100000000000000000000000000000000000000000000000000000000600052601160045260246000fd5b7f4e487b7100000000000000000000000000000000000000000000000000000000600052602260045260246000fd5b7f4e487b7100000000000000000000000000000000000000000000000000000000600052604160045260246000fd5b60008160011c9050919050565b62000d578162000c2f565b811462000d6357600080fd5b50565b62000d718162000c39565b811462000d7d57600080fd5b50565b6133358062000d906000396000f3fe608060405234801561001057600080fd5b50600436106101cf5760003560e01c80635c975abb11610104578063a217fddf116100a2578063d539139311610071578063d539139314610556578063d547741f14610574578063dd62ed3e14610590578063e63ab1e9146105c0576101cf565b8063a217fddf146104a8578063a457c2d7146104c6578063a9059cbb146104f6578063ca15c87314610526576101cf565b80638456cb59116100de5780638456cb59146104205780639010d07c1461042a57806391d148541461045a57806395d89b411461048a576101cf565b80635c975abb146103b657806370a08231146103d457806379cc679014610404576101cf565b80632ff2e9dc11610171578063395093511161014b57806339509351146103445780633f4ba83a1461037457806340c10f191461037e57806342966c681461039a576101cf565b80632ff2e9dc146102ec578063313ce5671461030a57806336568abe14610328576101cf565b806318160ddd116101ad57806318160ddd1461025257806323b872dd14610270578063248a9ca3146102a05780632f2ff15d146102d0576101cf565b806301ffc9a7146101d457806306fdde0314610204578063095ea7b314610222575b600080fd5b6101ee60048036038101906101e9919061244b565b6105de565b6040516101fb9190612d21565b60405180910390f35b61020c610658565b6040516102199190612d57565b60405180910390f35b61023c6004803603810190610237919061236e565b6106ea565b6040516102499190612d21565b60405180910390f35b61025a610708565b6040516102679190612fd9565b60405180910390f35b61028a6004803603810190610285919061231f565b610712565b6040516102979190612d21565b60405180910390f35b6102ba60048036038101906102b591906123aa565b61080a565b6040516102c79190612d3c565b60405180910390f35b6102ea60048036038101906102e591906123d3565b610829565b005b6102f461085d565b6040516103019190612fd9565b60405180910390f35b610312610863565b60405161031f9190612ff4565b60405180910390f35b610342600480360381019061033d91906123d3565b61087a565b005b61035e6004803603810190610359919061236e565b6108ae565b60405161036b9190612d21565b60405180910390f35b61037c61095a565b005b6103986004803603810190610393919061236e565b6109d4565b005b6103b460048036038101906103af9190612474565b610a52565b005b6103be610a66565b6040516103cb9190612d21565b60405180910390f35b6103ee60048036038101906103e991906122ba565b610a7d565b6040516103fb9190612fd9565b60405180910390f35b61041e6004803603810190610419919061236e565b610ac6565b005b610428610b41565b005b610444600480360381019061043f919061240f565b610bbb565b6040516104519190612d06565b60405180910390f35b610474600480360381019061046f91906123d3565b610bea565b6040516104819190612d21565b60405180910390f35b610492610c54565b60405161049f9190612d57565b60405180910390f35b6104b0610ce6565b6040516104bd9190612d3c565b60405180910390f35b6104e060048036038101906104db919061236e565b610ced565b6040516104ed9190612d21565b60405180910390f35b610510600480360381019061050b919061236e565b610dd8565b60405161051d9190612d21565b60405180910390f35b610540600480360381019061053b91906123aa565b610df6565b60405161054d9190612fd9565b60405180910390f35b61055e610e1a565b60405161056b9190612d3c565b60405180910390f35b61058e600480360381019061058991906123d3565b610e3e565b005b6105aa60048036038101906105a591906122e3565b610e72565b6040516105b79190612fd9565b60405180910390f35b6105c8610ef9565b6040516105d59190612d3c565b60405180910390f35b60007f5a05180f000000000000000000000000000000000000000000000000000000007bffffffffffffffffffffffffffffffffffffffffffffffffffffffff1916827bffffffffffffffffffffffffffffffffffffffffffffffffffffffff19161480610651575061065082610fb8565b5b9050919050565b60606005805461066790613202565b80601f016020809104026020016040519081016040528092919081815260200182805461069390613202565b80156106e05780601f106106b5576101008083540402835291602001916106e0565b820191906000526020600020905b8154815290600101906020018083116106c357829003601f168201915b5050505050905090565b60006106fe6106f7611032565b848461103a565b6001905092915050565b6000600454905090565b600061071f848484611205565b6000600360008673ffffffffffffffffffffffffffffffffffffffff1673ffffffffffffffffffffffffffffffffffffffff168152602001908152602001600020600061076a611032565b73ffffffffffffffffffffffffffffffffffffffff1673ffffffffffffffffffffffffffffffffffffffff168152602001908152602001600020549050828110156107ea576040517f08c379a00000000000000000000000000000000000000000000000000000000081526004016107e190612e79565b60405180910390fd5b6107fe856107f6611032565b85840361103a565b60019150509392505050565b6000806000838152602001908152602001600020600101549050919050565b610833828261147e565b6108588160016000858152602001908152602001600020610f2b90919063ffffffff16565b505050565b60085481565b6000600760019054906101000a900460ff16905090565b61088482826114a7565b6108a9816001600085815260200190815260200160002061152a90919063ffffffff16565b505050565b60006109506108bb611032565b8484600360006108c9611032565b73ffffffffffffffffffffffffffffffffffffffff1673ffffffffffffffffffffffffffffffffffffffff16815260200190815260200160002060008873ffffffffffffffffffffffffffffffffffffffff1673ffffffffffffffffffffffffffffffffffffffff1681526020019081526020016000205461094b9190613036565b61103a565b6001905092915050565b61098b7f65d7a28e3265b37a6474929f336521b332c1681b933f6cb9f3376673440d862a610986611032565b610bea565b6109ca576040517f08c379a00000000000000000000000000000000000000000000000000000000081526004016109c190612df9565b60405180910390fd5b6109d261155a565b565b610a057f9f2df0fed2c77648de5860a4cc508cd0818c85b8b8a1ab4ceeef8d981c8956a6610a00611032565b610bea565b610a44576040517f08c379a0000000000000000000000000000000000000000000000000000000008152600401610a3b90612e99565b60405180910390fd5b610a4e82826115fc565b5050565b610a63610a5d611032565b82611751565b50565b6000600760009054906101000a900460ff16905090565b6000600260008373ffffffffffffffffffffffffffffffffffffffff1673ffffffffffffffffffffffffffffffffffffffff168152602001908152602001600020549050919050565b6000610ad983610ad4611032565b610e72565b905081811015610b1e576040517f08c379a0000000000000000000000000000000000000000000000000000000008152600401610b1590612eb9565b60405180910390fd5b610b3283610b2a611032565b84840361103a565b610b3c8383611751565b505050565b610b727f65d7a28e3265b37a6474929f336521b332c1681b933f6cb9f3376673440d862a610b6d611032565b610bea565b610bb1576040517f08c379a0000000000000000000000000000000000000000000000000000000008152600401610ba890612f39565b60405180910390fd5b610bb961191e565b565b6000610be282600160008681526020019081526020016000206119c190919063ffffffff16565b905092915050565b600080600084815260200190815260200160002060000160008373ffffffffffffffffffffffffffffffffffffffff1673ffffffffffffffffffffffffffffffffffffffff16815260200190815260200160002060009054906101000a900460ff16905092915050565b606060068054610c6390613202565b80601f0160208091040260200160405190810160405280929190818152602001828054610c8f90613202565b8015610cdc5780601f10610cb157610100808354040283529160200191610cdc565b820191906000526020600020905b815481529060010190602001808311610cbf57829003601f168201915b5050505050905090565b6000801b81565b60008060036000610cfc611032565b73ffffffffffffffffffffffffffffffffffffffff1673ffffffffffffffffffffffffffffffffffffffff16815260200190815260200160002060008573ffffffffffffffffffffffffffffffffffffffff1673ffffffffffffffffffffffffffffffffffffffff16815260200190815260200160002054905082811015610db9576040517f08c379a0000000000000000000000000000000000000000000000000000000008152600401610db090612f59565b60405180910390fd5b610dcd610dc4611032565b8585840361103a565b600191505092915050565b6000610dec610de5611032565b8484611205565b6001905092915050565b6000610e13600160008481526020019081526020016000206119db565b9050919050565b7f9f2df0fed2c77648de5860a4cc508cd0818c85b8b8a1ab4ceeef8d981c8956a681565b610e4882826119f0565b610e6d816001600085815260200190815260200160002061152a90919063ffffffff16565b505050565b6000600360008473ffffffffffffffffffffffffffffffffffffffff1673ffffffffffffffffffffffffffffffffffffffff16815260200190815260200160002060008373ffffffffffffffffffffffffffffffffffffffff1673ffffffffffffffffffffffffffffffffffffffff16815260200190815260200160002054905092915050565b7f65d7a28e3265b37a6474929f336521b332c1681b933f6cb9f3376673440d862a81565b610f278282611a19565b5050565b6000610f53836000018373ffffffffffffffffffffffffffffffffffffffff1660001b611af9565b905092915050565b610f66838383610fb3565b610f6e610a66565b15610fae576040517f08c379a0000000000000000000000000000000000000000000000000000000008152600401610fa590612fb9565b60405180910390fd5b505050565b505050565b60007f7965db0b000000000000000000000000000000000000000000000000000000007bffffffffffffffffffffffffffffffffffffffffffffffffffffffff1916827bffffffffffffffffffffffffffffffffffffffffffffffffffffffff1916148061102b575061102a82611b69565b5b9050919050565b600033905090565b600073ffffffffffffffffffffffffffffffffffffffff168373ffffffffffffffffffffffffffffffffffffffff1614156110aa576040517f08c379a00000000000000000000000000000000000000000000000000000000081526004016110a190612f19565b60405180910390fd5b600073ffffffffffffffffffffffffffffffffffffffff168273ffffffffffffffffffffffffffffffffffffffff16141561111a576040517f08c379a000000000000000000000000000000000000000000000000000000000815260040161111190612e19565b60405180910390fd5b80600360008573ffffffffffffffffffffffffffffffffffffffff1673ffffffffffffffffffffffffffffffffffffffff16815260200190815260200160002060008473ffffffffffffffffffffffffffffffffffffffff1673ffffffffffffffffffffffffffffffffffffffff168152602001908152602001600020819055508173ffffffffffffffffffffffffffffffffffffffff168373ffffffffffffffffffffffffffffffffffffffff167f8c5be1e5ebec7d5bd14f71427d1e84f3dd0314c0f7b2291e5b200ac8c7c3b925836040516111f89190612fd9565b60405180910390a3505050565b600073ffffffffffffffffffffffffffffffffffffffff168373ffffffffffffffffffffffffffffffffffffffff161415611275576040517f08c379a000000000000000000000000000000000000000000000000000000000815260040161126c90612ef9565b60405180910390fd5b600073ffffffffffffffffffffffffffffffffffffffff168273ffffffffffffffffffffffffffffffffffffffff1614156112e5576040517f08c379a00000000000000000000000000000000000000000000000000000000081526004016112dc90612d99565b60405180910390fd5b6112f0838383611bd3565b6000600260008573ffffffffffffffffffffffffffffffffffffffff1673ffffffffffffffffffffffffffffffffffffffff16815260200190815260200160002054905081811015611377576040517f08c379a000000000000000000000000000000000000000000000000000000000815260040161136e90612e39565b60405180910390fd5b818103600260008673ffffffffffffffffffffffffffffffffffffffff1673ffffffffffffffffffffffffffffffffffffffff1681526020019081526020016000208190555081600260008573ffffffffffffffffffffffffffffffffffffffff1673ffffffffffffffffffffffffffffffffffffffff168152602001908152602001600020600082825461140c9190613036565b925050819055508273ffffffffffffffffffffffffffffffffffffffff168473ffffffffffffffffffffffffffffffffffffffff167fddf252ad1be2c89b69c2b068fc378daa952ba7f163c4a11628f55a4df523b3ef846040516114709190612fd9565b60405180910390a350505050565b6114878261080a565b61149881611493611032565b611be3565b6114a28383611a19565b505050565b6114af611032565b73ffffffffffffffffffffffffffffffffffffffff168173ffffffffffffffffffffffffffffffffffffffff161461151c576040517f08c379a000000000000000000000000000000000000000000000000000000000815260040161151390612f79565b60405180910390fd5b6115268282611c80565b5050565b6000611552836000018373ffffffffffffffffffffffffffffffffffffffff1660001b611d61565b905092915050565b611562610a66565b6115a1576040517f08c379a000000000000000000000000000000000000000000000000000000000815260040161159890612db9565b60405180910390fd5b6000600760006101000a81548160ff0219169083151502179055507f5db9ee0a495bf2e6ff9c91a7834c1ba4fdd244a5e8aa4e537bd38aeae4b073aa6115e5611032565b6040516115f29190612d06565b60405180910390a1565b600073ffffffffffffffffffffffffffffffffffffffff168273ffffffffffffffffffffffffffffffffffffffff16141561166c576040517f08c379a000000000000000000000000000000000000000000000000000000000815260040161166390612f99565b60405180910390fd5b61167860008383611bd3565b806004600082825461168a9190613036565b9250508190555080600260008473ffffffffffffffffffffffffffffffffffffffff1673ffffffffffffffffffffffffffffffffffffffff16815260200190815260200160002060008282546116e09190613036565b925050819055508173ffffffffffffffffffffffffffffffffffffffff16600073ffffffffffffffffffffffffffffffffffffffff167fddf252ad1be2c89b69c2b068fc378daa952ba7f163c4a11628f55a4df523b3ef836040516117459190612fd9565b60405180910390a35050565b600073ffffffffffffffffffffffffffffffffffffffff168273ffffffffffffffffffffffffffffffffffffffff1614156117c1576040517f08c379a00000000000000000000000000000000000000000000000000000000081526004016117b890612ed9565b60405180910390fd5b6117cd82600083611bd3565b6000600260008473ffffffffffffffffffffffffffffffffffffffff1673ffffffffffffffffffffffffffffffffffffffff16815260200190815260200160002054905081811015611854576040517f08c379a000000000000000000000000000000000000000000000000000000000815260040161184b90612dd9565b60405180910390fd5b818103600260008573ffffffffffffffffffffffffffffffffffffffff1673ffffffffffffffffffffffffffffffffffffffff1681526020019081526020016000208190555081600460008282546118ac91906130e6565b92505081905550600073ffffffffffffffffffffffffffffffffffffffff168373ffffffffffffffffffffffffffffffffffffffff167fddf252ad1be2c89b69c2b068fc378daa952ba7f163c4a11628f55a4df523b3ef846040516119119190612fd9565b60405180910390a3505050565b611926610a66565b15611966576040517f08c379a000000000000000000000000000000000000000000000000000000000815260040161195d90612e59565b60405180910390fd5b6001600760006101000a81548160ff0219169083151502179055507f62e78cea01bee320cd4e420270b5ea74000d11b0c9f74754ebdbfc544b05a2586119aa611032565b6040516119b79190612d06565b60405180910390a1565b60006119d08360000183611ee7565b60001c905092915050565b60006119e982600001611f38565b9050919050565b6119f98261080a565b611a0a81611a05611032565b611be3565b611a148383611c80565b505050565b611a238282610bea565b611af557600160008084815260200190815260200160002060000160008373ffffffffffffffffffffffffffffffffffffffff1673ffffffffffffffffffffffffffffffffffffffff16815260200190815260200160002060006101000a81548160ff021916908315150217905550611a9a611032565b73ffffffffffffffffffffffffffffffffffffffff168173ffffffffffffffffffffffffffffffffffffffff16837f2f8788117e7eff1d82e926ec794901d17c78024a50270940304540a733656f0d60405160405180910390a45b5050565b6000611b058383611f49565b611b5e578260000182908060018154018082558091505060019003906000526020600020016000909190919091505582600001805490508360010160008481526020019081526020016000208190555060019050611b63565b600090505b92915050565b60007f01ffc9a7000000000000000000000000000000000000000000000000000000007bffffffffffffffffffffffffffffffffffffffffffffffffffffffff1916827bffffffffffffffffffffffffffffffffffffffffffffffffffffffff1916149050919050565b611bde838383610f5b565b505050565b611bed8282610bea565b611c7c57611c128173ffffffffffffffffffffffffffffffffffffffff166014611f6c565b611c208360001c6020611f6c565b604051602001611c31929190612ccc565b6040516020818303038152906040526040517f08c379a0000000000000000000000000000000000000000000000000000000008152600401611c739190612d57565b60405180910390fd5b5050565b611c8a8282610bea565b15611d5d57600080600084815260200190815260200160002060000160008373ffffffffffffffffffffffffffffffffffffffff1673ffffffffffffffffffffffffffffffffffffffff16815260200190815260200160002060006101000a81548160ff021916908315150217905550611d02611032565b73ffffffffffffffffffffffffffffffffffffffff168173ffffffffffffffffffffffffffffffffffffffff16837ff6391f5c32d9c69d2a47ea670b442974b53935d1edc7fd64eb21e047a839171b60405160405180910390a45b5050565b60008083600101600084815260200190815260200160002054905060008114611edb576000600182611d9391906130e6565b9050600060018660000180549050611dab91906130e6565b9050818114611e66576000866000018281548110611df2577f4e487b7100000000000000000000000000000000000000000000000000000000600052603260045260246000fd5b9060005260206000200154905080876000018481548110611e3c577f4e487b7100000000000000000000000000000000000000000000000000000000600052603260045260246000fd5b90600052602060002001819055508387600101600083815260200190815260200160002081905550505b85600001805480611ea0577f4e487b7100000000000000000000000000000000000000000000000000000000600052603160045260246000fd5b600190038181906000526020600020016000905590558560010160008681526020019081526020016000206000905560019350505050611ee1565b60009150505b92915050565b6000826000018281548110611f25577f4e487b7100000000000000000000000000000000000000000000000000000000600052603260045260246000fd5b9060005260206000200154905092915050565b600081600001805490509050919050565b600080836001016000848152602001908152602001600020541415905092915050565b606060006002836002611f7f919061308c565b611f899190613036565b67ffffffffffffffff811115611fc8577f4e487b7100000000000000000000000000000000000000000000000000000000600052604160045260246000fd5b6040519080825280601f01601f191660200182016040528015611ffa5781602001600182028036833780820191505090505b5090507f300000000000000000000000000000000000000000000000000000000000000081600081518110612058577f4e487b7100000000000000000000000000000000000000000000000000000000600052603260045260246000fd5b60200101907effffffffffffffffffffffffffffffffffffffffffffffffffffffffffffff1916908160001a9053507f7800000000000000000000000000000000000000000000000000000000000000816001815181106120e2577f4e487b7100000000000000000000000000000000000000000000000000000000600052603260045260246000fd5b60200101907effffffffffffffffffffffffffffffffffffffffffffffffffffffffffffff1916908160001a90535060006001846002612122919061308c565b61212c9190613036565b90505b6001811115612218577f3031323334353637383961626364656600000000000000000000000000000000600f861660108110612194577f4e487b7100000000000000000000000000000000000000000000000000000000600052603260045260246000fd5b1a60f81b8282815181106121d1577f4e487b7100000000000000000000000000000000000000000000000000000000600052603260045260246000fd5b60200101907effffffffffffffffffffffffffffffffffffffffffffffffffffffffffffff1916908160001a905350600485901c945080612211906131d8565b905061212f565b506000841461225c576040517f08c379a000000000000000000000000000000000000000000000000000000000815260040161225390612d79565b60405180910390fd5b8091505092915050565b600081359050612275816132a3565b92915050565b60008135905061228a816132ba565b92915050565b60008135905061229f816132d1565b92915050565b6000813590506122b4816132e8565b92915050565b6000602082840312156122cc57600080fd5b60006122da84828501612266565b91505092915050565b600080604083850312156122f657600080fd5b600061230485828601612266565b925050602061231585828601612266565b9150509250929050565b60008060006060848603121561233457600080fd5b600061234286828701612266565b935050602061235386828701612266565b9250506040612364868287016122a5565b9150509250925092565b6000806040838503121561238157600080fd5b600061238f85828601612266565b92505060206123a0858286016122a5565b9150509250929050565b6000602082840312156123bc57600080fd5b60006123ca8482850161227b565b91505092915050565b600080604083850312156123e657600080fd5b60006123f48582860161227b565b925050602061240585828601612266565b9150509250929050565b6000806040838503121561242257600080fd5b60006124308582860161227b565b9250506020612441858286016122a5565b9150509250929050565b60006020828403121561245d57600080fd5b600061246b84828501612290565b91505092915050565b60006020828403121561248657600080fd5b6000612494848285016122a5565b91505092915050565b6124a68161311a565b82525050565b6124b58161312c565b82525050565b6124c481613138565b82525050565b60006124d58261300f565b6124df818561301a565b93506124ef8185602086016131a5565b6124f881613292565b840191505092915050565b600061250e8261300f565b612518818561302b565b93506125288185602086016131a5565b80840191505092915050565b600061254160208361301a565b91507f537472696e67733a20686578206c656e67746820696e73756666696369656e746000830152602082019050919050565b600061258160238361301a565b91507f45524332303a207472616e7366657220746f20746865207a65726f206164647260008301527f65737300000000000000000000000000000000000000000000000000000000006020830152604082019050919050565b60006125e760148361301a565b91507f5061757361626c653a206e6f74207061757365640000000000000000000000006000830152602082019050919050565b600061262760228361301a565b91507f45524332303a206275726e20616d6f756e7420657863656564732062616c616e60008301527f63650000000000000000000000000000000000000000000000000000000000006020830152604082019050919050565b600061268d60398361301a565b91507f45524332305072657365744d696e7465725061757365723a206d75737420686160008301527f76652070617573657220726f6c6520746f20756e7061757365000000000000006020830152604082019050919050565b60006126f360228361301a565b91507f45524332303a20617070726f766520746f20746865207a65726f20616464726560008301527f73730000000000000000000000000000000000000000000000000000000000006020830152604082019050919050565b600061275960268361301a565b91507f45524332303a207472616e7366657220616d6f756e742065786365656473206260008301527f616c616e636500000000000000000000000000000000000000000000000000006020830152604082019050919050565b60006127bf60108361301a565b91507f5061757361626c653a20706175736564000000000000000000000000000000006000830152602082019050919050565b60006127ff60288361301a565b91507f45524332303a207472616e7366657220616d6f756e742065786365656473206160008301527f6c6c6f77616e63650000000000000000000000000000000000000000000000006020830152604082019050919050565b600061286560368361301a565b91507f45524332305072657365744d696e7465725061757365723a206d75737420686160008301527f7665206d696e74657220726f6c6520746f206d696e74000000000000000000006020830152604082019050919050565b60006128cb60248361301a565b91507f45524332303a206275726e20616d6f756e74206578636565647320616c6c6f7760008301527f616e6365000000000000000000000000000000000000000000000000000000006020830152604082019050919050565b600061293160218361301a565b91507f45524332303a206275726e2066726f6d20746865207a65726f2061646472657360008301527f73000000000000000000000000000000000000000000000000000000000000006020830152604082019050919050565b600061299760258361301a565b91507f45524332303a207472616e736665722066726f6d20746865207a65726f20616460008301527f64726573730000000000000000000000000000000000000000000000000000006020830152604082019050919050565b60006129fd60248361301a565b91507f45524332303a20617070726f76652066726f6d20746865207a65726f2061646460008301527f72657373000000000000000000000000000000000000000000000000000000006020830152604082019050919050565b6000612a6360378361301a565b91507f45524332305072657365744d696e7465725061757365723a206d75737420686160008301527f76652070617573657220726f6c6520746f2070617573650000000000000000006020830152604082019050919050565b6000612ac960178361302b565b91507f416363657373436f6e74726f6c3a206163636f756e74200000000000000000006000830152601782019050919050565b6000612b0960258361301a565b91507f45524332303a2064656372656173656420616c6c6f77616e63652062656c6f7760008301527f207a65726f0000000000000000000000000000000000000000000000000000006020830152604082019050919050565b6000612b6f60118361302b565b91507f206973206d697373696e6720726f6c65200000000000000000000000000000006000830152601182019050919050565b6000612baf602f8361301a565b91507f416363657373436f6e74726f6c3a2063616e206f6e6c792072656e6f756e636560008301527f20726f6c657320666f722073656c6600000000000000000000000000000000006020830152604082019050919050565b6000612c15601f8361301a565b91507f45524332303a206d696e7420746f20746865207a65726f2061646472657373006000830152602082019050919050565b6000612c55602a8361301a565b91507f45524332305061757361626c653a20746f6b656e207472616e7366657220776860008301527f696c6520706175736564000000000000000000000000000000000000000000006020830152604082019050919050565b612cb78161318e565b82525050565b612cc681613198565b82525050565b6000612cd782612abc565b9150612ce38285612503565b9150612cee82612b62565b9150612cfa8284612503565b91508190509392505050565b6000602082019050612d1b600083018461249d565b92915050565b6000602082019050612d3660008301846124ac565b92915050565b6000602082019050612d5160008301846124bb565b92915050565b60006020820190508181036000830152612d7181846124ca565b905092915050565b60006020820190508181036000830152612d9281612534565b9050919050565b60006020820190508181036000830152612db281612574565b9050919050565b60006020820190508181036000830152612dd2816125da565b9050919050565b60006020820190508181036000830152612df28161261a565b9050919050565b60006020820190508181036000830152612e1281612680565b9050919050565b60006020820190508181036000830152612e32816126e6565b9050919050565b60006020820190508181036000830152612e528161274c565b9050919050565b60006020820190508181036000830152612e72816127b2565b9050919050565b60006020820190508181036000830152612e92816127f2565b9050919050565b60006020820190508181036000830152612eb281612858565b9050919050565b60006020820190508181036000830152612ed2816128be565b9050919050565b60006020820190508181036000830152612ef281612924565b9050919050565b60006020820190508181036000830152612f128161298a565b9050919050565b60006020820190508181036000830152612f32816129f0565b9050919050565b60006020820190508181036000830152612f5281612a56565b9050919050565b60006020820190508181036000830152612f7281612afc565b9050919050565b60006020820190508181036000830152612f9281612ba2565b9050919050565b60006020820190508181036000830152612fb281612c08565b9050919050565b60006020820190508181036000830152612fd281612c48565b9050919050565b6000602082019050612fee6000830184612cae565b92915050565b60006020820190506130096000830184612cbd565b92915050565b600081519050919050565b600082825260208201905092915050565b600081905092915050565b60006130418261318e565b915061304c8361318e565b9250827fffffffffffffffffffffffffffffffffffffffffffffffffffffffffffffffff0382111561308157613080613234565b5b828201905092915050565b60006130978261318e565b91506130a28361318e565b9250817fffffffffffffffffffffffffffffffffffffffffffffffffffffffffffffffff04831182151516156130db576130da613234565b5b828202905092915050565b60006130f18261318e565b91506130fc8361318e565b92508282101561310f5761310e613234565b5b828203905092915050565b60006131258261316e565b9050919050565b60008115159050919050565b6000819050919050565b60007fffffffff0000000000000000000000000000000000000000000000000000000082169050919050565b600073ffffffffffffffffffffffffffffffffffffffff82169050919050565b6000819050919050565b600060ff82169050919050565b60005b838110156131c35780820151818401526020810190506131a8565b838111156131d2576000848401525b50505050565b60006131e38261318e565b915060008214156131f7576131f6613234565b5b600182039050919050565b6000600282049050600182168061321a57607f821691505b6020821081141561322e5761322d613263565b5b50919050565b7f4e487b7100000000000000000000000000000000000000000000000000000000600052601160045260246000fd5b7f4e487b7100000000000000000000000000000000000000000000000000000000600052602260045260246000fd5b6000601f19601f8301169050919050565b6132ac8161311a565b81146132b757600080fd5b50565b6132c381613138565b81146132ce57600080fd5b50565b6132da81613142565b81146132e557600080fd5b50565b6132f18161318e565b81146132fc57600080fd5b5056fea264697066735822122028cc51b8c647f25551724c9979545883db4e83098e6e14fff43d46d50268556f64736f6c63430008000033",
  "linkReferences": {},
  "deployedLinkReferences": {}
}