{
  "_format": "hh-sol-artifact-1",
  "contractName": "CrowdFunding",
  "sourceName": "contracts/CrowdFunding.sol",
  "abi": [
    {
      "constant": true,
      "inputs": [],
      "name": "returnAllProjects",
      "outputs": [
        {
          "name": "",
          "type": "address[]"
        }
      ],
      "payable": false,
      "stateMutability": "view",
      "type": "function"
    },
    {
      "constant": false,
      "inputs": [
        {
          "name": "title",
          "type": "string"
        },
        {
          "name": "description",
          "type": "string"
        },
        {
          "name": "durationInDays",
          "type": "uint256"
        },
        {
          "name": "amountToRaise",
          "type": "uint256"
        }
      ],
      "name": "startProject",
      "outputs": [],
      "payable": false,
      "stateMutability": "nonpayable",
      "type": "function"
    },
    {
      "anonymous": false,
      "inputs": [
        {
          "indexed": false,
          "name": "contractAddress",
          "type": "address"
        },
        {
          "indexed": false,
          "name": "projectStarter",
          "type": "address"
        },
        {
          "indexed": false,
          "name": "projectTitle",
          "type": "string"
        },
        {
          "indexed": false,
          "name": "projectDesc",
          "type": "string"
        },
        {
          "indexed": false,
          "name": "deadline",
          "type": "uint256"
        },
        {
          "indexed": false,
          "name": "goalAmount",
          "type": "uint256"
        }
      ],
      "name": "ProjectStarted",
      "type": "event"
    }
  ],
  "bytecode": "0x608060405234801561001057600080fd5b506115f1806100206000396000f3fe608060405234801561001057600080fd5b5060043610610053576000357c01000000000000000000000000000000000000000000000000000000009004806385b6e28e14610058578063a24a2d16146100b7575b600080fd5b610060610199565b6040518080602001828103825283818151815260200191508051906020019060200280838360005b838110156100a3578082015181840152602081019050610088565b505050509050019250505060405180910390f35b610197600480360360808110156100cd57600080fd5b81019080803590602001906401000000008111156100ea57600080fd5b8201836020820111156100fc57600080fd5b8035906020019184600183028401116401000000008311171561011e57600080fd5b90919293919293908035906020019064010000000081111561013f57600080fd5b82018360208201111561015157600080fd5b8035906020019184600183028401116401000000008311171561017357600080fd5b90919293919293908035906020019092919080359060200190929190505050610227565b005b6060600080548060200260200160405190810160405280929190818152602001828054801561021d57602002820191906000526020600020905b8160009054906101000a900473ffffffffffffffffffffffffffffffffffffffff1673ffffffffffffffffffffffffffffffffffffffff16815260200190600101908083116101d3575b5050505050905090565b600061025161024262015180856104ae90919063ffffffff16565b426104e690919063ffffffff16565b905060003388888888868860405161026890610502565b808873ffffffffffffffffffffffffffffffffffffffff1673ffffffffffffffffffffffffffffffffffffffff16815260200180602001806020018581526020018481526020018381038352898982818152602001925080828437600081840152601f19601f8201169050808301925050508381038252878782818152602001925080828437600081840152601f19601f8201169050808301925050509950505050505050505050604051809103906000f08015801561032c573d6000803e3d6000fd5b50905060008190806001815401808255809150509060018203906000526020600020016000909192909190916101000a81548173ffffffffffffffffffffffffffffffffffffffff021916908373ffffffffffffffffffffffffffffffffffffffff160217905550507f6218c120ad6d836da0bfe4d4c44c8375356514fce6ae39ecdcd483fad6056e6681338a8a8a8a888a604051808973ffffffffffffffffffffffffffffffffffffffff1673ffffffffffffffffffffffffffffffffffffffff1681526020018873ffffffffffffffffffffffffffffffffffffffff1673ffffffffffffffffffffffffffffffffffffffff16815260200180602001806020018581526020018481526020018381038352898982818152602001925080828437600081840152601f19601f8201169050808301925050508381038252878782818152602001925080828437600081840152601f19601f8201169050808301925050509a505050505050505050505060405180910390a15050505050505050565b6000808314156104c157600090506104e0565b81830290508183828115156104d257fe5b041415156104dc57fe5b8090505b92915050565b600081830190508281101515156104f957fe5b80905092915050565b6110b6806105108339019056fe60806040526000600760006101000a81548160ff021916908360028111156200002457fe5b02179055503480156200003657600080fd5b50604051620010b6380380620010b6833981018060405260a08110156200005c57600080fd5b810190808051906020019092919080516401000000008111156200007f57600080fd5b828101905060208101848111156200009657600080fd5b8151856001820283011164010000000082111715620000b457600080fd5b50509291906020018051640100000000811115620000d157600080fd5b82810190506020810184811115620000e857600080fd5b81518560018202830111640100000000821117156200010657600080fd5b50509291906020018051906020019092919080519060200190929190505050846000806101000a81548173ffffffffffffffffffffffffffffffffffffffff021916908373ffffffffffffffffffffffffffffffffffffffff16021790555083600590805190602001906200017d929190620001b8565b50826006908051906020019062000196929190620001b8565b5080600181905550816004819055506000600381905550505050505062000267565b828054600181600116156101000203166002900490600052602060002090601f016020900481019282601f10620001fb57805160ff19168380011785556200022c565b828001600101855582156200022c579182015b828111156200022b5782518255916020019190600101906200020e565b5b5090506200023b91906200023f565b5090565b6200026491905b808211156200026057600081600090555060010162000246565b5090565b90565b610e3f80620002776000396000f3fe6080604052600436106100df576000357c0100000000000000000000000000000000000000000000000000000000900480637284e4161161009c578063c19d93fb11610076578063c19d93fb14610387578063ce845d1d146103c0578063d7bb99ba146103eb578063fbbf93a0146103f5576100df565b80637284e416146102b157806386f3258614610341578063b2d5ae4414610358576100df565b806302d05d3f146100e45780630785001c1461013b57806337f944cc1461016657806342e94c90146101915780634a79d50c146101f65780634c4cea5a14610286575b600080fd5b3480156100f057600080fd5b506100f961054e565b604051808273ffffffffffffffffffffffffffffffffffffffff1673ffffffffffffffffffffffffffffffffffffffff16815260200191505060405180910390f35b34801561014757600080fd5b50610150610573565b6040518082815260200191505060405180910390f35b34801561017257600080fd5b5061017b610579565b6040518082815260200191505060405180910390f35b34801561019d57600080fd5b506101e0600480360360208110156101b457600080fd5b81019080803573ffffffffffffffffffffffffffffffffffffffff16906020019092919050505061057f565b6040518082815260200191505060405180910390f35b34801561020257600080fd5b5061020b610597565b6040518080602001828103825283818151815260200191508051906020019080838360005b8381101561024b578082015181840152602081019050610230565b50505050905090810190601f1680156102785780820380516001836020036101000a031916815260200191505b509250505060405180910390f35b34801561029257600080fd5b5061029b610635565b6040518082815260200191505060405180910390f35b3480156102bd57600080fd5b506102c661063b565b6040518080602001828103825283818151815260200191508051906020019080838360005b838110156103065780820151818401526020810190506102eb565b50505050905090810190601f1680156103335780820380516001836020036101000a031916815260200191505b509250505060405180910390f35b34801561034d57600080fd5b506103566106d9565b005b34801561036457600080fd5b5061036d610751565b604051808215151515815260200191505060405180910390f35b34801561039357600080fd5b5061039c61090d565b604051808260028111156103ac57fe5b60ff16815260200191505060405180910390f35b3480156103cc57600080fd5b506103d5610920565b6040518082815260200191505060405180910390f35b6103f3610926565b005b34801561040157600080fd5b5061040a610ae7565b604051808873ffffffffffffffffffffffffffffffffffffffff1673ffffffffffffffffffffffffffffffffffffffff168152602001806020018060200187815260200186600281111561045a57fe5b60ff168152602001858152602001848152602001838103835289818151815260200191508051906020019080838360005b838110156104a657808201518184015260208101905061048b565b50505050905090810190601f1680156104d35780820380516001836020036101000a031916815260200191505b50838103825288818151815260200191508051906020019080838360005b8381101561050c5780820151818401526020810190506104f1565b50505050905090810190601f1680156105395780820380516001836020036101000a031916815260200191505b50995050505050505050505060405180910390f35b6000809054906101000a900473ffffffffffffffffffffffffffffffffffffffff1681565b60015481565b60045481565b60086020528060005260406000206000915090505481565b60058054600181600116156101000203166002900480601f01602080910402602001604051908101604052809291908181526020018280546001816001161561010002031660029004801561062d5780601f106106025761010080835404028352916020019161062d565b820191906000526020600020905b81548152906001019060200180831161061057829003601f168201915b505050505081565b60025481565b60068054600181600116156101000203166002900480601f0160208091040260200160405190810160405280929190818152602001828054600181600116156101000203166002900480156106d15780601f106106a6576101008083540402835291602001916106d1565b820191906000526020600020905b8154815290600101906020018083116106b457829003601f168201915b505050505081565b600154600354101515610718576002600760006101000a81548160ff0219169083600281111561070557fe5b0217905550610712610c7a565b50610748565b600454421115610747576001600760006101000a81548160ff0219169083600281111561074157fe5b02179055505b5b42600281905550565b6000600180600281111561076157fe5b600760009054906101000a900460ff16600281111561077c57fe5b14151561078857600080fd5b6000600860003373ffffffffffffffffffffffffffffffffffffffff1673ffffffffffffffffffffffffffffffffffffffff168152602001908152602001600020541115156107d657600080fd5b6000600860003373ffffffffffffffffffffffffffffffffffffffff1673ffffffffffffffffffffffffffffffffffffffff1681526020019081526020016000205490506000600860003373ffffffffffffffffffffffffffffffffffffffff1673ffffffffffffffffffffffffffffffffffffffff168152602001908152602001600020819055503373ffffffffffffffffffffffffffffffffffffffff166108fc829081150290604051600060405180830381858888f1935050505015156108e85780600860003373ffffffffffffffffffffffffffffffffffffffff1673ffffffffffffffffffffffffffffffffffffffff168152602001908152602001600020819055506000925050610909565b6108fd81600354610dde90919063ffffffff16565b60038190555060019250505b5090565b600760009054906101000a900460ff1681565b60035481565b600080600281111561093457fe5b600760009054906101000a900460ff16600281111561094f57fe5b14151561095b57600080fd5b6000809054906101000a900473ffffffffffffffffffffffffffffffffffffffff1673ffffffffffffffffffffffffffffffffffffffff163373ffffffffffffffffffffffffffffffffffffffff16141515156109b757600080fd5b610a0934600860003373ffffffffffffffffffffffffffffffffffffffff1673ffffffffffffffffffffffffffffffffffffffff16815260200190815260200160002054610df790919063ffffffff16565b600860003373ffffffffffffffffffffffffffffffffffffffff1673ffffffffffffffffffffffffffffffffffffffff16815260200190815260200160002081905550610a6134600354610df790919063ffffffff16565b6003819055507f5cdc4ab8d637538ead6cc1904d4160343656c8c82bd266635cfd31ac008fffe03334600354604051808473ffffffffffffffffffffffffffffffffffffffff1673ffffffffffffffffffffffffffffffffffffffff168152602001838152602001828152602001935050505060405180910390a1610ae46106d9565b50565b60006060806000806000806000809054906101000a900473ffffffffffffffffffffffffffffffffffffffff16965060058054600181600116156101000203166002900480601f016020809104026020016040519081016040528092919081815260200182805460018160011615610100020316600290048015610bac5780601f10610b8157610100808354040283529160200191610bac565b820191906000526020600020905b815481529060010190602001808311610b8f57829003601f168201915b5050505050955060068054600181600116156101000203166002900480601f016020809104026020016040519081016040528092919081815260200182805460018160011615610100020316600290048015610c495780601f10610c1e57610100808354040283529160200191610c49565b820191906000526020600020905b815481529060010190602001808311610c2c57829003601f168201915b505050505094506004549350600760009054906101000a900460ff1692506003549150600154905090919293949596565b60006002806002811115610c8a57fe5b600760009054906101000a900460ff166002811115610ca557fe5b141515610cb157600080fd5b6000600354905060006003819055506000809054906101000a900473ffffffffffffffffffffffffffffffffffffffff1673ffffffffffffffffffffffffffffffffffffffff166108fc829081150290604051600060405180830381858888f1935050505015610da9577f2f256415efc8561af8db667cb242964b19be7380f379ccdafaa0e54a6f6b70696000809054906101000a900473ffffffffffffffffffffffffffffffffffffffff16604051808273ffffffffffffffffffffffffffffffffffffffff1673ffffffffffffffffffffffffffffffffffffffff16815260200191505060405180910390a16001925050610dda565b806003819055506002600760006101000a81548160ff02191690836002811115610dcf57fe5b021790555060009250505b5090565b6000828211151515610dec57fe5b818303905092915050565b60008183019050828110151515610e0a57fe5b8090509291505056fea165627a7a723058204e932d62670f3cd64e1dc5b96e18f977a755c50bed9e8af4410e2176a3b75fc80029a165627a7a723058203affe1f53dd0dc3486a020175c8fccb58858ec483f78e023023f6a63a4c336dd0029",
  "linkReferences": {},
  "deployedLinkReferences": {}
}