{
  "_format": "hh-sol-artifact-1",
  "contractName": "AuctionFixedPrice",
  "sourceName": "contracts/AuctionFixedPrice.sol",
  "abi": [
    {
      "constant": false,
      "inputs": [
        {
          "name": "",
          "type": "address"
        },
        {
          "name": "",
          "type": "address"
        },
        {
          "name": "",
          "type": "uint256"
        },
        {
          "name": "calldata",
          "type": "bytes"
        }
      ],
      "name": "onERC721Received",
      "outputs": [
        {
          "name": "",
          "type": "bytes4"
        }
      ],
      "payable": false,
      "stateMutability": "nonpayable",
      "type": "function"
    },
    {
      "constant": false,
      "inputs": [
        {
          "name": "_nft",
          "type": "address"
        },
        {
          "name": "_tokenId",
          "type": "uint256"
        }
      ],
      "name": "purchaseNFTToken",
      "outputs": [],
      "payable": false,
      "stateMutability": "nonpayable",
      "type": "function"
    },
    {
      "constant": true,
      "inputs": [
        {
          "name": "_nft",
          "type": "address"
        },
        {
          "name": "_tokenId",
          "type": "uint256"
        }
      ],
      "name": "getTokenAuctionDetails",
      "outputs": [
        {
          "components": [
            {
              "name": "seller",
              "type": "address"
            },
            {
              "name": "price",
              "type": "uint256"
            },
            {
              "name": "duration",
              "type": "uint256"
            },
            {
              "name": "tokenAddress",
              "type": "address"
            },
            {
              "name": "isActive",
              "type": "bool"
            }
          ],
          "name": "",
          "type": "tuple"
        }
      ],
      "payable": false,
      "stateMutability": "view",
      "type": "function"
    },
    {
      "constant": true,
      "inputs": [
        {
          "name": "",
          "type": "address"
        },
        {
          "name": "",
          "type": "uint256"
        }
      ],
      "name": "tokenToAuction",
      "outputs": [
        {
          "name": "seller",
          "type": "address"
        },
        {
          "name": "price",
          "type": "uint256"
        },
        {
          "name": "duration",
          "type": "uint256"
        },
        {
          "name": "tokenAddress",
          "type": "address"
        },
        {
          "name": "isActive",
          "type": "bool"
        }
      ],
      "payable": false,
      "stateMutability": "view",
      "type": "function"
    },
    {
      "constant": false,
      "inputs": [
        {
          "name": "_nft",
          "type": "address"
        },
        {
          "name": "_tokenId",
          "type": "uint256"
        }
      ],
      "name": "cancelAution",
      "outputs": [],
      "payable": false,
      "stateMutability": "nonpayable",
      "type": "function"
    },
    {
      "constant": false,
      "inputs": [
        {
          "name": "_nft",
          "type": "address"
        },
        {
          "name": "_tokenId",
          "type": "uint256"
        },
        {
          "name": "_tokenAddress",
          "type": "address"
        },
        {
          "name": "_price",
          "type": "uint256"
        },
        {
          "name": "_duration",
          "type": "uint256"
        }
      ],
      "name": "createTokenAuction",
      "outputs": [],
      "payable": false,
      "stateMutability": "nonpayable",
      "type": "function"
    }
  ],
  "bytecode": "0x608060405234801561001057600080fd5b5061107c806100206000396000f300608060405260043610610078576000357c0100000000000000000000000000000000000000000000000000000000900463ffffffff168063150b7a021461007d5780632c040b9f146100ba578063722565c5146100e35780637792ba5f14610120578063cdbd4d0114610161578063e31ca18a1461018a575b600080fd5b34801561008957600080fd5b506100a4600480360361009f9190810190610bd9565b6101b3565b6040516100b19190610ecc565b60405180910390f35b3480156100c657600080fd5b506100e160048036036100dc9190810190610c54565b61021b565b005b3480156100ef57600080fd5b5061010a60048036036101059190810190610c54565b6104c4565b6040516101179190610f27565b60405180910390f35b34801561012c57600080fd5b5061014760048036036101429190810190610c54565b610616565b604051610158959493929190610e79565b60405180910390f35b34801561016d57600080fd5b5061018860048036036101839190810190610c54565b6106a6565b005b34801561019657600080fd5b506101b160048036036101ac9190810190610c90565b610845565b005b600060405180807f6f6e455243373231526563656976656428616464726573732c6164647265737381526020017f2c75696e743235362c6279746573290000000000000000000000000000000000815250602f01905060405180910390209050949350505050565b60008060008060008673ffffffffffffffffffffffffffffffffffffffff1673ffffffffffffffffffffffffffffffffffffffff16815260200190815260200160002060008581526020019081526020016000209250428360020154111515156102ba576040517f08c379a00000000000000000000000000000000000000000000000000000000081526004016102b190610ee7565b60405180910390fd5b8260030160149054906101000a900460ff1615156102d757600080fd5b60008360030160146101000a81548160ff0219169083151502179055508260000160009054906101000a900473ffffffffffffffffffffffffffffffffffffffff169150826001015490508260030160009054906101000a900473ffffffffffffffffffffffffffffffffffffffff1673ffffffffffffffffffffffffffffffffffffffff166323b872dd3384846040518463ffffffff167c010000000000000000000000000000000000000000000000000000000002815260040161039f93929190610e42565b602060405180830381600087803b1580156103b957600080fd5b505af11580156103cd573d6000803e3d6000fd5b505050506040513d601f19601f820116820180604052506103f19190810190610d07565b1515610432576040517f08c379a000000000000000000000000000000000000000000000000000000000815260040161042990610f07565b60405180910390fd5b8473ffffffffffffffffffffffffffffffffffffffff166342842e0e3033876040518463ffffffff167c010000000000000000000000000000000000000000000000000000000002815260040161048b93929190610e42565b600060405180830381600087803b1580156104a557600080fd5b505af11580156104b9573d6000803e3d6000fd5b505050505050505050565b6104cc610ae9565b6104d4610ae9565b6000808573ffffffffffffffffffffffffffffffffffffffff1673ffffffffffffffffffffffffffffffffffffffff168152602001908152602001600020600084815260200190815260200160002060a060405190810160405290816000820160009054906101000a900473ffffffffffffffffffffffffffffffffffffffff1673ffffffffffffffffffffffffffffffffffffffff1673ffffffffffffffffffffffffffffffffffffffff16815260200160018201548152602001600282015481526020016003820160009054906101000a900473ffffffffffffffffffffffffffffffffffffffff1673ffffffffffffffffffffffffffffffffffffffff1673ffffffffffffffffffffffffffffffffffffffff1681526020016003820160149054906101000a900460ff16151515158152505090508091505092915050565b6000602052816000526040600020602052806000526040600020600091509150508060000160009054906101000a900473ffffffffffffffffffffffffffffffffffffffff16908060010154908060020154908060030160009054906101000a900473ffffffffffffffffffffffffffffffffffffffff16908060030160149054906101000a900460ff16905085565b60008060008473ffffffffffffffffffffffffffffffffffffffff1673ffffffffffffffffffffffffffffffffffffffff168152602001908152602001600020600083815260200190815260200160002090503373ffffffffffffffffffffffffffffffffffffffff168160000160009054906101000a900473ffffffffffffffffffffffffffffffffffffffff1673ffffffffffffffffffffffffffffffffffffffff1614151561075757600080fd5b8060030160149054906101000a900460ff16151561077457600080fd5b60008160030160146101000a81548160ff0219169083151502179055508273ffffffffffffffffffffffffffffffffffffffff166342842e0e308360000160009054906101000a900473ffffffffffffffffffffffffffffffffffffffff16856040518463ffffffff167c010000000000000000000000000000000000000000000000000000000002815260040161080e93929190610e42565b600060405180830381600087803b15801561082857600080fd5b505af115801561083c573d6000803e3d6000fd5b50505050505050565b61084d610ae9565b60008073ffffffffffffffffffffffffffffffffffffffff163373ffffffffffffffffffffffffffffffffffffffff161415151561088a57600080fd5b600073ffffffffffffffffffffffffffffffffffffffff168773ffffffffffffffffffffffffffffffffffffffff16141515156108c657600080fd5b6000841115156108d557600080fd5b6000831115156108e457600080fd5b60a0604051908101604052803373ffffffffffffffffffffffffffffffffffffffff1681526020018581526020018481526020018673ffffffffffffffffffffffffffffffffffffffff1681526020016001151581525091503390508673ffffffffffffffffffffffffffffffffffffffff166342842e0e8230896040518463ffffffff167c010000000000000000000000000000000000000000000000000000000002815260040161099993929190610e42565b600060405180830381600087803b1580156109b357600080fd5b505af11580156109c7573d6000803e3d6000fd5b50505050816000808973ffffffffffffffffffffffffffffffffffffffff1673ffffffffffffffffffffffffffffffffffffffff168152602001908152602001600020600088815260200190815260200160002060008201518160000160006101000a81548173ffffffffffffffffffffffffffffffffffffffff021916908373ffffffffffffffffffffffffffffffffffffffff160217905550602082015181600101556040820151816002015560608201518160030160006101000a81548173ffffffffffffffffffffffffffffffffffffffff021916908373ffffffffffffffffffffffffffffffffffffffff16021790555060808201518160030160146101000a81548160ff02191690831515021790555090505050505050505050565b60a060405190810160405280600073ffffffffffffffffffffffffffffffffffffffff1681526020016000815260200160008152602001600073ffffffffffffffffffffffffffffffffffffffff1681526020016000151581525090565b6000610b538235610ffd565b905092915050565b6000610b67825161101d565b905092915050565b600082601f8301121515610b8257600080fd5b8135610b95610b9082610f6f565b610f42565b91508082526020830160208301858383011115610bb157600080fd5b610bbc838284611033565b50505092915050565b6000610bd18235611029565b905092915050565b60008060008060808587031215610bef57600080fd5b6000610bfd87828801610b47565b9450506020610c0e87828801610b47565b9350506040610c1f87828801610bc5565b925050606085013567ffffffffffffffff811115610c3c57600080fd5b610c4887828801610b6f565b91505092959194509250565b60008060408385031215610c6757600080fd5b6000610c7585828601610b47565b9250506020610c8685828601610bc5565b9150509250929050565b600080600080600060a08688031215610ca857600080fd5b6000610cb688828901610b47565b9550506020610cc788828901610bc5565b9450506040610cd888828901610b47565b9350506060610ce988828901610bc5565b9250506080610cfa88828901610bc5565b9150509295509295909350565b600060208284031215610d1957600080fd5b6000610d2784828501610b5b565b91505092915050565b610d3981610f9b565b82525050565b610d4881610fbb565b82525050565b610d5781610fc7565b82525050565b6000601982527f446561646c696e6520646964206e6f74207061737320796574000000000000006020830152604082019050919050565b6000601782527f657263203230207472616e73666572206661696c6564210000000000000000006020830152604082019050919050565b60a082016000820151610de16000850182610d30565b506020820151610df46020850182610e33565b506040820151610e076040850182610e33565b506060820151610e1a6060850182610d30565b506080820151610e2d6080850182610d3f565b50505050565b610e3c81610ff3565b82525050565b6000606082019050610e576000830186610d30565b610e646020830185610d30565b610e716040830184610e33565b949350505050565b600060a082019050610e8e6000830188610d30565b610e9b6020830187610e33565b610ea86040830186610e33565b610eb56060830185610d30565b610ec26080830184610d3f565b9695505050505050565b6000602082019050610ee16000830184610d4e565b92915050565b60006020820190508181036000830152610f0081610d5d565b9050919050565b60006020820190508181036000830152610f2081610d94565b9050919050565b600060a082019050610f3c6000830184610dcb565b92915050565b6000604051905081810181811067ffffffffffffffff82111715610f6557600080fd5b8060405250919050565b600067ffffffffffffffff821115610f8657600080fd5b601f19601f8301169050602081019050919050565b600073ffffffffffffffffffffffffffffffffffffffff82169050919050565b60008115159050919050565b60007fffffffff0000000000000000000000000000000000000000000000000000000082169050919050565b6000819050919050565b600073ffffffffffffffffffffffffffffffffffffffff82169050919050565b60008115159050919050565b6000819050919050565b828183376000838301525050505600a265627a7a7230582052c9c7d21a091799c1a9beb4a50df76fc6faef37443b4f2c2701f9b0db57c8a56c6578706572696d656e74616cf50037",
  "linkReferences": {},
  "deployedLinkReferences": {}
}