{
  "_format": "hh-sol-artifact-1",
  "contractName": "AuctionFixedPrice",
  "sourceName": "contracts/AuctionFixedPrice.sol",
  "abi": [
    {
      "constant": false,
      "inputs": [
        {
          "name": "",
          "type": "address"
        },
        {
          "name": "",
          "type": "address"
        },
        {
          "name": "",
          "type": "uint256"
        },
        {
          "name": "calldata",
          "type": "bytes"
        }
      ],
      "name": "onERC721Received",
      "outputs": [
        {
          "name": "",
          "type": "bytes4"
        }
      ],
      "payable": false,
      "stateMutability": "nonpayable",
      "type": "function"
    },
    {
      "constant": false,
      "inputs": [
        {
          "name": "_nft",
          "type": "address"
        },
        {
          "name": "_tokenId",
          "type": "uint256"
        }
      ],
      "name": "purchaseNFTToken",
      "outputs": [],
      "payable": false,
      "stateMutability": "nonpayable",
      "type": "function"
    },
    {
      "constant": true,
      "inputs": [
        {
          "name": "_nft",
          "type": "address"
        },
        {
          "name": "_tokenId",
          "type": "uint256"
        }
      ],
      "name": "getTokenAuctionDetails",
      "outputs": [
        {
          "components": [
            {
              "name": "seller",
              "type": "address"
            },
            {
              "name": "price",
              "type": "uint256"
            },
            {
              "name": "duration",
              "type": "uint256"
            },
            {
              "name": "tokenAddress",
              "type": "address"
            },
            {
              "name": "isActive",
              "type": "bool"
            }
          ],
          "name": "",
          "type": "tuple"
        }
      ],
      "payable": false,
      "stateMutability": "view",
      "type": "function"
    },
    {
      "constant": true,
      "inputs": [
        {
          "name": "",
          "type": "address"
        },
        {
          "name": "",
          "type": "uint256"
        }
      ],
      "name": "tokenToAuction",
      "outputs": [
        {
          "name": "seller",
          "type": "address"
        },
        {
          "name": "price",
          "type": "uint256"
        },
        {
          "name": "duration",
          "type": "uint256"
        },
        {
          "name": "tokenAddress",
          "type": "address"
        },
        {
          "name": "isActive",
          "type": "bool"
        }
      ],
      "payable": false,
      "stateMutability": "view",
      "type": "function"
    },
    {
      "constant": false,
      "inputs": [
        {
          "name": "_nft",
          "type": "address"
        },
        {
          "name": "_tokenId",
          "type": "uint256"
        }
      ],
      "name": "cancelAution",
      "outputs": [],
      "payable": false,
      "stateMutability": "nonpayable",
      "type": "function"
    },
    {
      "constant": false,
      "inputs": [
        {
          "name": "_nft",
          "type": "address"
        },
        {
          "name": "_tokenId",
          "type": "uint256"
        },
        {
          "name": "_tokenAddress",
          "type": "address"
        },
        {
          "name": "_price",
          "type": "uint256"
        },
        {
          "name": "_duration",
          "type": "uint256"
        }
      ],
      "name": "createTokenAuction",
      "outputs": [],
      "payable": false,
      "stateMutability": "nonpayable",
      "type": "function"
    }
  ],
  "bytecode": "0x608060405234801561001057600080fd5b5061107b806100206000396000f300608060405260043610610078576000357c0100000000000000000000000000000000000000000000000000000000900463ffffffff168063150b7a021461007d5780632c040b9f146100ba578063722565c5146100e35780637792ba5f14610120578063cdbd4d0114610161578063e31ca18a1461018a575b600080fd5b34801561008957600080fd5b506100a4600480360361009f9190810190610bd8565b6101b3565b6040516100b19190610ecb565b60405180910390f35b3480156100c657600080fd5b506100e160048036036100dc9190810190610c53565b61021b565b005b3480156100ef57600080fd5b5061010a60048036036101059190810190610c53565b6104c3565b6040516101179190610f26565b60405180910390f35b34801561012c57600080fd5b5061014760048036036101429190810190610c53565b610615565b604051610158959493929190610e78565b60405180910390f35b34801561016d57600080fd5b5061018860048036036101839190810190610c53565b6106a5565b005b34801561019657600080fd5b506101b160048036036101ac9190810190610c8f565b610844565b005b600060405180807f6f6e455243373231526563656976656428616464726573732c6164647265737381526020017f2c75696e743235362c6279746573290000000000000000000000000000000000815250602f01905060405180910390209050949350505050565b60008060008060008673ffffffffffffffffffffffffffffffffffffffff1673ffffffffffffffffffffffffffffffffffffffff168152602001908152602001600020600085815260200190815260200160002092504283600201541115156102b9576040517f08c379a00000000000000000000000000000000000000000000000000000000081526004016102b090610ee6565b60405180910390fd5b8260030160149054906101000a900460ff1615156102d657600080fd5b60008360030160146101000a81548160ff0219169083151502179055508260000160009054906101000a900473ffffffffffffffffffffffffffffffffffffffff169150826001015490508260030160009054906101000a900473ffffffffffffffffffffffffffffffffffffffff1673ffffffffffffffffffffffffffffffffffffffff166323b872dd3384846040518463ffffffff167c010000000000000000000000000000000000000000000000000000000002815260040161039e93929190610e41565b602060405180830381600087803b1580156103b857600080fd5b505af11580156103cc573d6000803e3d6000fd5b505050506040513d601f19601f820116820180604052506103f09190810190610d06565b1515610431576040517f08c379a000000000000000000000000000000000000000000000000000000000815260040161042890610f06565b60405180910390fd5b8473ffffffffffffffffffffffffffffffffffffffff166342842e0e3033876040518463ffffffff167c010000000000000000000000000000000000000000000000000000000002815260040161048a93929190610e41565b600060405180830381600087803b1580156104a457600080fd5b505af11580156104b8573d6000803e3d6000fd5b505050505050505050565b6104cb610ae8565b6104d3610ae8565b6000808573ffffffffffffffffffffffffffffffffffffffff1673ffffffffffffffffffffffffffffffffffffffff168152602001908152602001600020600084815260200190815260200160002060a060405190810160405290816000820160009054906101000a900473ffffffffffffffffffffffffffffffffffffffff1673ffffffffffffffffffffffffffffffffffffffff1673ffffffffffffffffffffffffffffffffffffffff16815260200160018201548152602001600282015481526020016003820160009054906101000a900473ffffffffffffffffffffffffffffffffffffffff1673ffffffffffffffffffffffffffffffffffffffff1673ffffffffffffffffffffffffffffffffffffffff1681526020016003820160149054906101000a900460ff16151515158152505090508091505092915050565b6000602052816000526040600020602052806000526040600020600091509150508060000160009054906101000a900473ffffffffffffffffffffffffffffffffffffffff16908060010154908060020154908060030160009054906101000a900473ffffffffffffffffffffffffffffffffffffffff16908060030160149054906101000a900460ff16905085565b60008060008473ffffffffffffffffffffffffffffffffffffffff1673ffffffffffffffffffffffffffffffffffffffff168152602001908152602001600020600083815260200190815260200160002090503373ffffffffffffffffffffffffffffffffffffffff168160000160009054906101000a900473ffffffffffffffffffffffffffffffffffffffff1673ffffffffffffffffffffffffffffffffffffffff1614151561075657600080fd5b8060030160149054906101000a900460ff16151561077357600080fd5b60008160030160146101000a81548160ff0219169083151502179055508273ffffffffffffffffffffffffffffffffffffffff166342842e0e308360000160009054906101000a900473ffffffffffffffffffffffffffffffffffffffff16856040518463ffffffff167c010000000000000000000000000000000000000000000000000000000002815260040161080d93929190610e41565b600060405180830381600087803b15801561082757600080fd5b505af115801561083b573d6000803e3d6000fd5b50505050505050565b61084c610ae8565b60008073ffffffffffffffffffffffffffffffffffffffff163373ffffffffffffffffffffffffffffffffffffffff161415151561088957600080fd5b600073ffffffffffffffffffffffffffffffffffffffff168773ffffffffffffffffffffffffffffffffffffffff16141515156108c557600080fd5b6000841115156108d457600080fd5b6000831115156108e357600080fd5b60a0604051908101604052803373ffffffffffffffffffffffffffffffffffffffff1681526020018581526020018481526020018673ffffffffffffffffffffffffffffffffffffffff1681526020016001151581525091503390508673ffffffffffffffffffffffffffffffffffffffff166342842e0e8230896040518463ffffffff167c010000000000000000000000000000000000000000000000000000000002815260040161099893929190610e41565b600060405180830381600087803b1580156109b257600080fd5b505af11580156109c6573d6000803e3d6000fd5b50505050816000808973ffffffffffffffffffffffffffffffffffffffff1673ffffffffffffffffffffffffffffffffffffffff168152602001908152602001600020600088815260200190815260200160002060008201518160000160006101000a81548173ffffffffffffffffffffffffffffffffffffffff021916908373ffffffffffffffffffffffffffffffffffffffff160217905550602082015181600101556040820151816002015560608201518160030160006101000a81548173ffffffffffffffffffffffffffffffffffffffff021916908373ffffffffffffffffffffffffffffffffffffffff16021790555060808201518160030160146101000a81548160ff02191690831515021790555090505050505050505050565b60a060405190810160405280600073ffffffffffffffffffffffffffffffffffffffff1681526020016000815260200160008152602001600073ffffffffffffffffffffffffffffffffffffffff1681526020016000151581525090565b6000610b528235610ffc565b905092915050565b6000610b66825161101c565b905092915050565b600082601f8301121515610b8157600080fd5b8135610b94610b8f82610f6e565b610f41565b91508082526020830160208301858383011115610bb057600080fd5b610bbb838284611032565b50505092915050565b6000610bd08235611028565b905092915050565b60008060008060808587031215610bee57600080fd5b6000610bfc87828801610b46565b9450506020610c0d87828801610b46565b9350506040610c1e87828801610bc4565b925050606085013567ffffffffffffffff811115610c3b57600080fd5b610c4787828801610b6e565b91505092959194509250565b60008060408385031215610c6657600080fd5b6000610c7485828601610b46565b9250506020610c8585828601610bc4565b9150509250929050565b600080600080600060a08688031215610ca757600080fd5b6000610cb588828901610b46565b9550506020610cc688828901610bc4565b9450506040610cd788828901610b46565b9350506060610ce888828901610bc4565b9250506080610cf988828901610bc4565b9150509295509295909350565b600060208284031215610d1857600080fd5b6000610d2684828501610b5a565b91505092915050565b610d3881610f9a565b82525050565b610d4781610fba565b82525050565b610d5681610fc6565b82525050565b6000601782527f446561646c696e6520616c7265616479207061737365640000000000000000006020830152604082019050919050565b6000601782527f657263203230207472616e73666572206661696c6564210000000000000000006020830152604082019050919050565b60a082016000820151610de06000850182610d2f565b506020820151610df36020850182610e32565b506040820151610e066040850182610e32565b506060820151610e196060850182610d2f565b506080820151610e2c6080850182610d3e565b50505050565b610e3b81610ff2565b82525050565b6000606082019050610e566000830186610d2f565b610e636020830185610d2f565b610e706040830184610e32565b949350505050565b600060a082019050610e8d6000830188610d2f565b610e9a6020830187610e32565b610ea76040830186610e32565b610eb46060830185610d2f565b610ec16080830184610d3e565b9695505050505050565b6000602082019050610ee06000830184610d4d565b92915050565b60006020820190508181036000830152610eff81610d5c565b9050919050565b60006020820190508181036000830152610f1f81610d93565b9050919050565b600060a082019050610f3b6000830184610dca565b92915050565b6000604051905081810181811067ffffffffffffffff82111715610f6457600080fd5b8060405250919050565b600067ffffffffffffffff821115610f8557600080fd5b601f19601f8301169050602081019050919050565b600073ffffffffffffffffffffffffffffffffffffffff82169050919050565b60008115159050919050565b60007fffffffff0000000000000000000000000000000000000000000000000000000082169050919050565b6000819050919050565b600073ffffffffffffffffffffffffffffffffffffffff82169050919050565b60008115159050919050565b6000819050919050565b828183376000838301525050505600a265627a7a72305820a28c155316e219b71bd2770b07db860d22a7abf47f468a3c269f74a18347644b6c6578706572696d656e74616cf50037",
  "linkReferences": {},
  "deployedLinkReferences": {}
}